{
  "contractName": "LeveragedYieldFarm",
  "abi": [
    {
      "inputs": [],
      "payable": false,
      "stateMutability": "nonpayable",
      "type": "constructor"
    },
    {
      "payable": true,
      "stateMutability": "payable",
      "type": "fallback"
    },
    {
      "anonymous": false,
      "inputs": [
        {
          "indexed": true,
          "name": "_from",
          "type": "address"
        },
        {
          "indexed": true,
          "name": "_id",
          "type": "bytes32"
        },
        {
          "indexed": false,
          "name": "_value",
          "type": "uint256"
        }
      ],
      "name": "FlashLoan",
      "type": "event"
    },
    {
      "constant": false,
      "inputs": [
        {
          "name": "initialAmount",
          "type": "uint256"
        }
      ],
      "name": "depositDai",
      "outputs": [
        {
          "name": "",
          "type": "bool"
        }
      ],
      "payable": false,
      "stateMutability": "nonpayable",
      "type": "function"
    },
    {
      "constant": false,
      "inputs": [
        {
          "name": "initialAmount",
          "type": "uint256"
        }
      ],
      "name": "withdrawDai",
      "outputs": [
        {
          "name": "",
          "type": "bool"
        }
      ],
      "payable": false,
      "stateMutability": "nonpayable",
      "type": "function"
    },
    {
      "constant": false,
      "inputs": [
        {
          "name": "sender",
          "type": "address"
        },
        {
          "components": [
            {
              "name": "owner",
              "type": "address"
            },
            {
              "name": "number",
              "type": "uint256"
            }
          ],
          "name": "account",
          "type": "tuple"
        },
        {
          "name": "data",
          "type": "bytes"
        }
      ],
      "name": "callFunction",
      "outputs": [],
      "payable": false,
      "stateMutability": "nonpayable",
      "type": "function"
    },
    {
      "constant": false,
      "inputs": [
        {
          "name": "_tokenAddress",
          "type": "address"
        }
      ],
      "name": "withdrawToken",
      "outputs": [],
      "payable": false,
      "stateMutability": "nonpayable",
      "type": "function"
    }
  ],
  "bytecode": "0x608060405260008054600160a060020a0319908116736b175474e89094c44da98b954eedeac495271d0f1791829055600180548216600160a060020a03938416179055600280548216735d3a536e4d6dbd6114cc1ead35777bab948e36431790819055600380548316918416919091179055600480548216733d9819210a31b4961b30ef54be2aed79b9c9cd3b1790819055600580548316919093161790915560068054821673c00e94cb662c3520282e6f5717214004a7f2688817905560078054909116731e0447b19bb6ecfdae1e4ae1694b0c3659614e4e179055348015620000e957600080fd5b5060088054600160a060020a0319163317905560408051600180825281830190925260609181602001602082028038833950506002548251929350600160a060020a0316918391506000906200013b57fe5b600160a060020a0392831660209182029290920101526005546040517fc2998238000000000000000000000000000000000000000000000000000000008152606092919091169063c29982389062000198908590600401620003f8565b600060405180830381600087803b158015620001b357600080fd5b505af1158015620001c8573d6000803e3d6000fd5b505050506040513d6000823e601f3d908101601f19168201604052620001f29190810190620002f5565b9050806000815181106200020257fe5b60200260200101516000146200024f576040517f08c379a000000000000000000000000000000000000000000000000000000000815260040162000246906200040b565b60405180910390fd5b505062000493565b600082601f8301126200026957600080fd5b8151620002806200027a826200044a565b62000423565b91508181835260208401935060208101905083856020840282011115620002a657600080fd5b60005b83811015620002d65781620002bf8882620002e0565b8452506020928301929190910190600101620002a9565b5050505092915050565b6000620002ee825162000490565b9392505050565b6000602082840312156200030857600080fd5b81516001604060020a038111156200031f57600080fd5b6200032d8482850162000257565b949350505050565b60006200034383836200034b565b505060200190565b62000356816200047e565b82525050565b6000620003698262000471565b62000375818562000475565b935062000382836200046b565b60005b82811015620003b3576200039b86835162000335565b9550620003a8826200046b565b915060010162000385565b5093949350505050565b6000620003cc60208362000475565b7f436f6d7074726f6c6c65722e656e7465724d61726b657473206661696c65642e815260200192915050565b60208082528101620002ee81846200035c565b602080825281016200041d81620003bd565b92915050565b6040518181016001604060020a03811182821017156200044257600080fd5b604052919050565b60006001604060020a038211156200046157600080fd5b5060209081020190565b60200190565b5190565b90815260200190565b6000600160a060020a0382166200041d565b90565b611a1f80620004a36000396000f3fe6080604052600436106100425760e060020a600035046335842f748114610047578063894760691461007d5780638b4187131461009f57806393a991af146100bf575b600080fd5b34801561005357600080fd5b506100676100623660046113ec565b6100df565b6040516100749190611870565b60405180910390f35b34801561008957600080fd5b5061009d610098366004611307565b610151565b005b3480156100ab57600080fd5b5061009d6100ba36600461134b565b6102a5565b3480156100cb57600080fd5b506100676100da3660046113ec565b6103ae565b600854600090600160a060020a031633146101185760405160e560020a62461bcd02815260040161010f9061187e565b60405180910390fd5b6007546000546003600a850204918483039160019161014691600160a060020a039182169116848685610698565b506001949350505050565b600854600160a060020a0316331461017e5760405160e560020a62461bcd02815260040161010f9061187e565b60405160e060020a6370a08231028152600090600160a060020a038316906370a08231906101b0903090600401611814565b60206040518083038186803b1580156101c857600080fd5b505afa1580156101dc573d6000803e3d6000fd5b505050506040513d601f19601f82011682018060405250610200919081019061140a565b6008546040517fa9059cbb000000000000000000000000000000000000000000000000000000008152919250600160a060020a038085169263a9059cbb9261024e9216908590600401611822565b602060405180830381600087803b15801561026857600080fd5b505af115801561027c573d6000803e3d6000fd5b505050506040513d601f19601f820116820180604052506102a091908101906113b0565b505050565b6102ad6110fc565b818060200190516102c191908101906113ce565b905060008160000151600160a060020a03166370a08231306040518263ffffffff1660e060020a0281526004016102f89190611814565b60206040518083038186803b15801561031057600080fd5b505afa158015610324573d6000803e3d6000fd5b505050506040513d601f19601f82011682018060405250610348919081019061140a565b905081602001518110156103715760405160e560020a62461bcd02815260040161010f9061189e565b6060820151151560011415610394576103928260400151836020015161090c565b505b60608201516103a7576103a5610af5565b505b5050505050565b600854600090600160a060020a031633146103de5760405160e560020a62461bcd02815260040161010f9061187e565b600754600080546003600a86020492858403929161040b91600160a060020a039081169116848685610698565b6005546040517fe9af0292000000000000000000000000000000000000000000000000000000008152600160a060020a039091169063e9af029290610454903090600401611814565b600060405180830381600087803b15801561046e57600080fd5b505af1158015610482573d6000803e3d6000fd5b505060065460085460405160e060020a6370a08231028152600160a060020a03928316945063a9059cbb935091169083906370a08231906104c7903090600401611814565b60206040518083038186803b1580156104df57600080fd5b505afa1580156104f3573d6000803e3d6000fd5b505050506040513d601f19601f82011682018060405250610517919081019061140a565b6040518363ffffffff1660e060020a028152600401610537929190611822565b602060405180830381600087803b15801561055157600080fd5b505af1158015610565573d6000803e3d6000fd5b505050506040513d601f19601f8201168201806040525061058991908101906113b0565b5060015460085460405160e060020a6370a08231028152600160a060020a039283169263a9059cbb92169083906370a08231906105ca903090600401611814565b60206040518083038186803b1580156105e257600080fd5b505afa1580156105f6573d6000803e3d6000fd5b505050506040513d601f19601f8201168201806040525061061a919081019061140a565b6040518363ffffffff1660e060020a02815260040161063a929190611822565b602060405180830381600087803b15801561065457600080fd5b505af1158015610668573d6000803e3d6000fd5b505050506040513d601f19601f8201168201806040525061068c91908101906113b0565b50600195945050505050565b8460006106a58287610dfd565b905060006106b286610f67565b6040517f095ea7b3000000000000000000000000000000000000000000000000000000008152909150600160a060020a0388169063095ea7b3906106fc908b90859060040161183d565b602060405180830381600087803b15801561071657600080fd5b505af115801561072a573d6000803e3d6000fd5b505050506040513d601f19601f8201168201806040525061074e91908101906113b0565b5060408051600380825260808201909252606091816020015b61076f61112f565b81526020019060019003908161076757905050905061078e8388610f7a565b8160008151811061079b57fe5b60200260200101819052506107f960405180608001604052808a600160a060020a031681526020018481526020018881526020018715158152506040516020016107e591906118be565b604051602081830303815290604052611004565b8160018151811061080657fe5b602002602001018190525061081b8383611072565b8160028151811061082857fe5b6020908102919091010152604080516001808252818301909252606091816020015b610852611181565b81526020019060019003908161084a57905050905061086f6110ad565b8160008151811061087c57fe5b60209081029190910101526040517fa67a6a45000000000000000000000000000000000000000000000000000000008152600160a060020a0386169063a67a6a45906108ce908490869060040161184b565b600060405180830381600087803b1580156108e857600080fd5b505af11580156108fc573d6000803e3d6000fd5b5050505050505050505050505050565b6001546002546040517f095ea7b3000000000000000000000000000000000000000000000000000000008152600092600160a060020a039081169263095ea7b39261095f9290911690879060040161183d565b602060405180830381600087803b15801561097957600080fd5b505af115801561098d573d6000803e3d6000fd5b505050506040513d601f19601f820116820180604052506109b191908101906113b0565b506003546040517fa0712d68000000000000000000000000000000000000000000000000000000008152600160a060020a039091169063a0712d68906109fb9086906004016118cc565b602060405180830381600087803b158015610a1557600080fd5b505af1158015610a29573d6000803e3d6000fd5b505050506040513d601f19601f82011682018060405250610a4d919081019061140a565b506003546040517fc5ebeaec000000000000000000000000000000000000000000000000000000008152600160a060020a039091169063c5ebeaec90610a979085906004016118cc565b602060405180830381600087803b158015610ab157600080fd5b505af1158015610ac5573d6000803e3d6000fd5b505050506040513d601f19601f82011682018060405250610ae9919081019061140a565b50600190505b92915050565b6003546040517f17bfdfbc0000000000000000000000000000000000000000000000000000000081526000918291600160a060020a03909116906317bfdfbc90610b43903090600401611814565b602060405180830381600087803b158015610b5d57600080fd5b505af1158015610b71573d6000803e3d6000fd5b505050506040513d601f19601f82011682018060405250610b95919081019061140a565b6001546003546040517f095ea7b3000000000000000000000000000000000000000000000000000000008152929350600160a060020a039182169263095ea7b392610be6921690859060040161183d565b602060405180830381600087803b158015610c0057600080fd5b505af1158015610c14573d6000803e3d6000fd5b505050506040513d601f19601f82011682018060405250610c3891908101906113b0565b506003546040517f0e752702000000000000000000000000000000000000000000000000000000008152600160a060020a0390911690630e75270290610c829084906004016118cc565b602060405180830381600087803b158015610c9c57600080fd5b505af1158015610cb0573d6000803e3d6000fd5b505050506040513d601f19601f82011682018060405250610cd4919081019061140a565b5060035460405160e060020a6370a08231028152600160a060020a03909116906370a0823190610d08903090600401611814565b60206040518083038186803b158015610d2057600080fd5b505afa158015610d34573d6000803e3d6000fd5b505050506040513d601f19601f82011682018060405250610d58919081019061140a565b6003546040517fdb006a75000000000000000000000000000000000000000000000000000000008152919250600160a060020a03169063db006a7590610da29084906004016118cc565b602060405180830381600087803b158015610dbc57600080fd5b505af1158015610dd0573d6000803e3d6000fd5b505050506040513d601f19601f82011682018060405250610df4919081019061140a565b50600191505090565b600080839050600081600160a060020a031663295c39a56040518163ffffffff1660e060020a02815260040160206040518083038186803b158015610e4157600080fd5b505afa158015610e55573d6000803e3d6000fd5b505050506040513d601f19601f82011682018060405250610e79919081019061140a565b90506000805b82811015610f4b576040517f062bd3e9000000000000000000000000000000000000000000000000000000008152600160a060020a0385169063062bd3e990610ecc9084906004016118cc565b60206040518083038186803b158015610ee457600080fd5b505afa158015610ef8573d6000803e3d6000fd5b505050506040513d601f19601f82011682018060405250610f1c919081019061132d565b915085600160a060020a031682600160a060020a03161415610f43579350610aef92505050565b600101610e7f565b5060405160e560020a62461bcd02815260040161010f906118ae565b6000610aef82600263ffffffff6110cd16565b610f8261112f565b604080516101008101825260018152600060208083018290528351608081018552828152929384019291908201905b8152602001600081526020018581525081526020018481526020016000815260200130600160a060020a031681526020016000815260200160405180602001604052806000815250815250905092915050565b61100c61112f565b6040805161010081018252600881526000602080830182905283516080810185528281529293840192919082019081526020016000815260006020918201819052918352820181905260408201819052306060830152608082015260a001929092525090565b61107a61112f565b60408051610100810182526000808252602080830182905283516080810185526001815292938401929190820190610fb1565b6110b5611181565b50604080518082019091523081526001602082015290565b6000828201838110156110f55760405160e560020a62461bcd02815260040161010f9061188e565b9392505050565b60405180608001604052806000600160a060020a0316815260200160008152602001600081526020016000151581525090565b60408051610160810182526000808252602082015290810161114f611198565b815260200160008152602001600081526020016000600160a060020a0316815260200160008152602001606081525090565b604080518082019091526000808252602082015290565b604080516080810190915260008082526020820190815260200160008152602001600081525090565b60006110f5823561193c565b60006110f5825161193c565b60006110f58251611947565b600082601f8301126111f657600080fd5b813561120961120482611901565b6118da565b9150808252602083016020830185838301111561122557600080fd5b6112308382846119a3565b50505092915050565b60006040828403121561124b57600080fd5b61125560406118da565b9050600061126384846111c1565b8252506020611274848483016112ef565b60208301525092915050565b60006080828403121561129257600080fd5b61129c60806118da565b905060006112aa84846111cd565b82525060206112bb848483016112fb565b60208301525060406112cf848285016112fb565b60408301525060606112e3848285016111d9565b60608301525092915050565b60006110f58235611974565b60006110f58251611974565b60006020828403121561131957600080fd5b600061132584846111c1565b949350505050565b60006020828403121561133f57600080fd5b600061132584846111cd565b60008060006080848603121561136057600080fd5b600061136c86866111c1565b935050602061137d86828701611239565b925050606084013567ffffffffffffffff81111561139a57600080fd5b6113a6868287016111e5565b9150509250925092565b6000602082840312156113c257600080fd5b600061132584846111d9565b6000608082840312156113e057600080fd5b60006113258484611280565b6000602082840312156113fe57600080fd5b600061132584846112ef565b60006020828403121561141c57600080fd5b600061132584846112fb565b60006110f583836116a2565b6000611440838361179d565b505060400190565b61145181611977565b82525050565b6114518161193c565b600061146b8261192f565b6114758185611933565b93508360208202850161148785611929565b60005b848110156114be5783830388526114a2838351611428565b92506114ad82611929565b60209890980197915060010161148a565b50909695505050505050565b60006114d58261192f565b6114df8185611933565b93506114ea83611929565b60005b8281101561151557611500868351611434565b955061150b82611929565b91506001016114ed565b5093949350505050565b61145181611947565b60006115338261192f565b61153d8185611933565b935061154d8185602086016119af565b611556816119db565b9093019392505050565b61145181611982565b6114518161198d565b600061157f601883611933565b7f63616c6c6572206973206e6f7420746865206f776e6572210000000000000000815260200192915050565b60006115b8601b83611933565b7f536166654d6174683a206164646974696f6e206f766572666c6f770000000000815260200192915050565b60006115f1602483611933565b7f4e6f7420656e6f7567682066756e647320746f2072657061792064596458206c81527f6f616e2100000000000000000000000000000000000000000000000000000000602082015260400192915050565b6000611650602483611933565b7f4e6f206d61726b6574496420666f756e6420666f722070726f7669646564207481527f6f6b656e00000000000000000000000000000000000000000000000000000000602082015260400192915050565b80516000906101608401906116b78582611560565b5060208301516116ca602086018261180b565b5060408301516116dd604086018261174d565b5060608301516116f060c086018261180b565b50608083015161170360e086018261180b565b5060a0830151611717610100860182611457565b5060c083015161172b61012086018261180b565b5060e08301518482036101408601526117448282611528565b95945050505050565b8051608083019061175e848261151f565b5060208201516117716020850182611569565b5060408201516117846040850182611569565b506060820151611797606085018261180b565b50505050565b805160408301906117ae8482611457565b506020820151611797602085018261180b565b805160808301906117d28482611457565b5060208201516117e5602085018261180b565b5060408201516117f8604085018261180b565b506060820151611797606085018261151f565b61145181611974565b60208101610aef8284611448565b604081016118308285611448565b6110f5602083018461180b565b604081016118308285611457565b6040808252810161185c81856114ca565b905081810360208301526113258184611460565b60208101610aef828461151f565b60208082528101610aef81611572565b60208082528101610aef816115ab565b60208082528101610aef816115e4565b60208082528101610aef81611643565b60808101610aef82846117c1565b60208101610aef828461180b565b60405181810167ffffffffffffffff811182821017156118f957600080fd5b604052919050565b600067ffffffffffffffff82111561191857600080fd5b506020601f91909101601f19160190565b60200190565b5190565b90815260200190565b6000610aef82611968565b151590565b60006009821061195857fe5b5090565b60006002821061195857fe5b600160a060020a031690565b90565b6000610aef82611998565b6000610aef8261194c565b6000610aef8261195c565b6000610aef8261193c565b82818337506000910152565b60005b838110156119ca5781810151838201526020016119b2565b838111156117975750506000910152565b601f01601f19169056fea265627a7a7230582092af4f4d6e42d01e7de7d17d795bc9a6451ca8b9ab310709d131762ca11b36ba6c6578706572696d656e74616cf50037",
  "source": "// SPDX-License-Identifier: MIT\npragma solidity ^0.5.7;\npragma experimental ABIEncoderV2;\n\nimport \"@studydefi/money-legos/dydx/contracts/DydxFlashloanBase.sol\";\nimport \"@studydefi/money-legos/compound/contracts/ICToken.sol\";\nimport \"@studydefi/money-legos/dydx/contracts/ICallee.sol\";\nimport \"@openzeppelin/contracts/token/ERC20/IERC20.sol\";\n\n//cuz @studydefi doesn't contain clamComp();\ninterface Comptroller {\n  function enterMarkets(address[] calldata) external returns (uint256[] memory);\n  function claimComp(address holder) external;\n}\n\ncontract LeveragedYieldFarm is ICallee, DydxFlashloanBase {\n  // Mainnet Dai\n  // https://etherscan.io/address/0x6b175474e89094c44da98b954eedeac495271d0f#readContract\n  address daiAddress = 0x6B175474E89094C44Da98b954EedeAC495271d0F;\n  IERC20 dai = IERC20(daiAddress);\n\n  // Mainnet cDai\n  // https://etherscan.io/address/0x5d3a536e4d6dbd6114cc1ead35777bab948e3643#readProxyContract\n  address cDaiAddress = 0x5d3a536E4D6DbD6114cc1Ead35777bAB948E3643;\n  ICToken cDai = ICToken(cDaiAddress);\n\n  // Mainnet Comptroller\n  // https://etherscan.io/address/0x3d9819210a31b4961b30ef54be2aed79b9c9cd3b#readProxyContract\n  address comptrollerAddress = 0x3d9819210A31b4961b30EF54bE2aeD79B9c9Cd3B;\n  Comptroller comptroller = Comptroller(comptrollerAddress);\n\n  // COMP ERC-20 token\n  // https://etherscan.io/token/0xc00e94cb662c3520282e6f5717214004a7f26888\n  IERC20 compToken = IERC20(0xc00e94Cb662C3520282E6f5717214004A7f26888);\n\n  // Mainnet dYdX SoloMargin contract\n  // https://etherscan.io/address/0x1E0447b19BB6EcFdAe1e4AE1694b0C3659614e4e#readProxyContract\n  address soloMarginAddress = 0x1E0447b19BB6EcFdAe1e4AE1694b0C3659614e4e;\n\n  // Contract owner\n  address payable owner;\n\n  struct MyCustomData {\n    address token;\n    uint256 repayAmount;\n    uint256 fullAmount;\n    bool isDeposit;\n  }\n\n  event FlashLoan(address indexed _from, bytes32 indexed _id, uint _value);\n\n  // Modifiers\n  modifier onlyOwner() {\n    require(msg.sender == owner, \"caller is not the owner!\");\n    _;\n  }\n\n  constructor() public {\n    // Track the contract owner\n    owner = msg.sender;\n\n    // Enter the cDai market so you can borrow another type of asset\n    address[] memory cTokens = new address[](1);\n    cTokens[0] = cDaiAddress;\n    uint256[] memory errors = comptroller.enterMarkets(cTokens);\n    if (errors[0] != 0) {\n      revert(\"Comptroller.enterMarkets failed.\");\n    }\n  }\n\n  //Don't allow contract to receive Ether by mistake\n  function() external payable {\n    revert();\n  }\n\n  function flashLoan(address _solo, address _token, uint256 _amount, uint256 _fullAmount, bool _isDeposit) internal {\n    ISoloMargin solo = ISoloMargin(_solo);\n\n    // Get marketId from token address\n    uint256 marketId = _getMarketIdFromTokenAddress(_solo, _token);\n\n    // Calculate repay amount (_amount + (2 wei))\n    // Approve transfer from\n    uint256 repayAmount = _getRepaymentAmountInternal(_amount);\n    IERC20(_token).approve(_solo, repayAmount);\n\n    // 1. Withdraw $\n    // 2. Call callFunction(...)\n    // 3. Deposit back $\n    Actions.ActionArgs[] memory operations = new Actions.ActionArgs[](3);\n\n    operations[0] = _getWithdrawAction(marketId, _amount);\n    operations[1] = _getCallAction(\n      // Encode MyCustomData for callFunction\n      abi.encode(MyCustomData({\n        token: _token,\n        repayAmount: repayAmount,\n        fullAmount: _fullAmount,\n        isDeposit: _isDeposit}\n      ))\n    );\n    operations[2] = _getDepositAction(marketId, repayAmount);\n\n    Account.Info[] memory accountInfos = new Account.Info[](1);\n    accountInfos[0] = _getAccountInfo();\n\n    solo.operate(accountInfos, operations);\n  }\n\n  // Do not deposit all your DAI because you must pay flash loan fees\n  // Always keep at least 1 DAI in the contract\n  function depositDai(uint256 initialAmount) external onlyOwner returns (bool) {\n    // Total deposit: 30% initial amount, 70% flash loan\n    uint256 totalAmount = (initialAmount * 10) / 3;\n\n    // loan is 70% of total deposit\n    uint256 flashLoanAmount = totalAmount - initialAmount;\n\n    // Get DAI Flash Loan for \"DEPOSIT\"\n    bool isDeposit = true;\n    flashLoan(soloMarginAddress, daiAddress, flashLoanAmount, totalAmount, isDeposit); // execution goes to `callFunction`\n\n    // Handle remaining execution inside handleDeposit() function\n\n    return true;\n  }\n\n  // You must have some Dai in your contract still to pay flash loan fee!\n  // Always keep at least 1 DAI in the contract\n  function withdrawDai(uint256 initialAmount) external onlyOwner returns (bool) {\n    // Total deposit: 30% initial amount, 70% flash loan\n    uint256 totalAmount = (initialAmount * 10) / 3;\n\n    // loan is 70% of total deposit\n    uint256 flashLoanAmount = totalAmount - initialAmount;\n\n    // Use flash loan to payback borrowed amount\n    bool isDeposit = false; //false means withdraw\n    flashLoan(soloMarginAddress, daiAddress, flashLoanAmount, totalAmount, isDeposit); // execution goes to `callFunction`\n\n    // Handle repayment inside handleWithdraw() function\n\n    // Claim COMP tokens\n    comptroller.claimComp(address(this));\n\n    // Withdraw COMP tokens\n    compToken.transfer(owner, compToken.balanceOf(address(this)));\n\n    // Withdraw Dai to the wallet\n    dai.transfer(owner, dai.balanceOf(address(this)));\n\n    return true;\n  }\n\n  // This is the function that will be called postLoan\n  // i.e. Encode the logic to handle your flashloaned funds here\n  function callFunction(address sender, Account.Info memory account, bytes memory data) public {\n    MyCustomData memory mcd = abi.decode(data, (MyCustomData));\n    uint256 balOfLoanedToken = IERC20(mcd.token).balanceOf(address(this));\n\n    // Note that you can ignore the line below\n    // if your dydx account (this contract in this case)\n    // has deposited at least ~2 Wei of assets into the account\n    // to balance out the collaterization ratio\n    require(\n      balOfLoanedToken >= mcd.repayAmount,\n      \"Not enough funds to repay dYdX loan!\"\n    );\n\n    if(mcd.isDeposit == true) {\n      handleDeposit(mcd.fullAmount, mcd.repayAmount);\n    }\n\n    if(mcd.isDeposit == false) {\n      handleWithdraw();\n    }\n  }\n\n  // You must first send DAI to this contract before you can call this function\n  function handleDeposit(uint256 totalAmount, uint256 flashLoanAmount) internal returns (bool) {\n    // Approve Dai tokens as collateral\n    dai.approve(cDaiAddress, totalAmount);\n\n    // Provide collateral by minting cDai tokens\n    cDai.mint(totalAmount);\n\n    // Borrow Dai\n    cDai.borrow(flashLoanAmount);\n\n    // Start earning COMP tokens, yay!\n    return true;\n  }\n\n  function handleWithdraw() internal returns (bool) {\n    uint256 balance;\n\n    // Get curent borrow Balance\n    balance = cDai.borrowBalanceCurrent(address(this));\n\n    // Approve tokens for repayment\n    dai.approve(address(cDai), balance);\n\n    // Repay tokens\n    cDai.repayBorrow(balance);\n\n    // Get cDai balance\n    balance = cDai.balanceOf(address(this));\n\n    // Redeem cDai\n    cDai.redeem(balance);\n\n    return true;\n  }\n\n  // Fallback in case any other tokens are sent to this contract\n  function withdrawToken(address _tokenAddress) public onlyOwner {\n    uint256 balance = IERC20(_tokenAddress).balanceOf(address(this));\n    IERC20(_tokenAddress).transfer(owner, balance);\n  }\n}\n",
  "sourcePath": "R:/GitHubSasha/flash-loan/src/contracts/LeveragedYieldFarm.sol",
  "compiler": {
    "name": "solc",
    "version": "0.5.7+commit.6da8b019.Emscripten.clang"
  },
  "schemaVersion": "3.3.4",
  "updatedAt": "2021-09-19T01:16:05.159Z",
  "devdoc": {
    "methods": {}
  },
  "userdoc": {
    "methods": {}
  }
}